{
  "contractName": "UserManager",
  "abi": [
    {
      "inputs": [],
      "stateMutability": "nonpayable",
      "type": "constructor"
    },
    {
      "anonymous": false,
      "inputs": [
        {
          "indexed": false,
          "internalType": "uint256",
          "name": "adminCount",
          "type": "uint256"
        },
        {
          "indexed": false,
          "internalType": "uint256",
          "name": "employeeCount",
          "type": "uint256"
        },
        {
          "indexed": false,
          "internalType": "uint256",
          "name": "customerCount",
          "type": "uint256"
        },
        {
          "indexed": false,
          "internalType": "uint256",
          "name": "activeUserCount",
          "type": "uint256"
        },
        {
          "indexed": false,
          "internalType": "uint256",
          "name": "blockedUserCount",
          "type": "uint256"
        }
      ],
      "name": "AllUserCounts",
      "type": "event"
    },
    {
      "anonymous": false,
      "inputs": [
        {
          "indexed": true,
          "internalType": "address",
          "name": "userAddress",
          "type": "address"
        },
        {
          "indexed": false,
          "internalType": "uint256",
          "name": "balance",
          "type": "uint256"
        }
      ],
      "name": "BalanceAdded",
      "type": "event"
    },
    {
      "anonymous": false,
      "inputs": [
        {
          "indexed": true,
          "internalType": "address",
          "name": "userAddress",
          "type": "address"
        },
        {
          "indexed": false,
          "internalType": "string",
          "name": "description",
          "type": "string"
        },
        {
          "indexed": false,
          "internalType": "uint256",
          "name": "amount",
          "type": "uint256"
        }
      ],
      "name": "ChallanAdded",
      "type": "event"
    },
    {
      "anonymous": false,
      "inputs": [
        {
          "indexed": false,
          "internalType": "string",
          "name": "vehicleNo",
          "type": "string"
        },
        {
          "indexed": false,
          "internalType": "uint256",
          "name": "timestamp",
          "type": "uint256"
        },
        {
          "indexed": false,
          "internalType": "uint256",
          "name": "challanPrice",
          "type": "uint256"
        },
        {
          "indexed": false,
          "internalType": "string",
          "name": "reason",
          "type": "string"
        },
        {
          "indexed": false,
          "internalType": "address",
          "name": "issuedby",
          "type": "address"
        }
      ],
      "name": "ChallanAdded",
      "type": "event"
    },
    {
      "anonymous": false,
      "inputs": [
        {
          "indexed": false,
          "internalType": "uint256",
          "name": "amount",
          "type": "uint256"
        },
        {
          "indexed": false,
          "internalType": "uint256",
          "name": "timestamp",
          "type": "uint256"
        }
      ],
      "name": "PaymentAdded",
      "type": "event"
    },
    {
      "anonymous": false,
      "inputs": [
        {
          "indexed": false,
          "internalType": "string",
          "name": "vehicleNo",
          "type": "string"
        },
        {
          "indexed": false,
          "internalType": "string",
          "name": "startingPoint",
          "type": "string"
        },
        {
          "indexed": false,
          "internalType": "string",
          "name": "endingPoint",
          "type": "string"
        },
        {
          "indexed": false,
          "internalType": "uint256",
          "name": "totalDistance",
          "type": "uint256"
        },
        {
          "indexed": false,
          "internalType": "string",
          "name": "highwayNo",
          "type": "string"
        },
        {
          "indexed": true,
          "internalType": "address",
          "name": "issuedby",
          "type": "address"
        },
        {
          "indexed": false,
          "internalType": "uint256",
          "name": "tollamount",
          "type": "uint256"
        },
        {
          "indexed": false,
          "internalType": "bool",
          "name": "ispaid",
          "type": "bool"
        }
      ],
      "name": "TollAdded",
      "type": "event"
    },
    {
      "anonymous": false,
      "inputs": [
        {
          "indexed": true,
          "internalType": "address",
          "name": "userAddress",
          "type": "address"
        }
      ],
      "name": "UserBlocked",
      "type": "event"
    },
    {
      "anonymous": false,
      "inputs": [
        {
          "indexed": false,
          "internalType": "string",
          "name": "viewerName",
          "type": "string"
        },
        {
          "indexed": false,
          "internalType": "string",
          "name": "userName",
          "type": "string"
        },
        {
          "indexed": false,
          "internalType": "string",
          "name": "userEmail",
          "type": "string"
        },
        {
          "indexed": false,
          "internalType": "bool",
          "name": "isActive",
          "type": "bool"
        },
        {
          "indexed": false,
          "internalType": "enum UserManager.UserRole",
          "name": "role",
          "type": "uint8"
        }
      ],
      "name": "UserDetailsViewed",
      "type": "event"
    },
    {
      "anonymous": false,
      "inputs": [
        {
          "indexed": true,
          "internalType": "address",
          "name": "userAddress",
          "type": "address"
        },
        {
          "indexed": false,
          "internalType": "string",
          "name": "name",
          "type": "string"
        },
        {
          "indexed": false,
          "internalType": "enum UserManager.UserRole",
          "name": "role",
          "type": "uint8"
        }
      ],
      "name": "UserLogin",
      "type": "event"
    },
    {
      "anonymous": false,
      "inputs": [
        {
          "indexed": true,
          "internalType": "address",
          "name": "userAddress",
          "type": "address"
        },
        {
          "indexed": false,
          "internalType": "enum UserManager.UserRole",
          "name": "oldRole",
          "type": "uint8"
        },
        {
          "indexed": false,
          "internalType": "enum UserManager.UserRole",
          "name": "newRole",
          "type": "uint8"
        }
      ],
      "name": "UserRoleChanged",
      "type": "event"
    },
    {
      "anonymous": false,
      "inputs": [
        {
          "indexed": true,
          "internalType": "address",
          "name": "userAddress",
          "type": "address"
        },
        {
          "indexed": false,
          "internalType": "string",
          "name": "name",
          "type": "string"
        },
        {
          "indexed": false,
          "internalType": "string",
          "name": "email",
          "type": "string"
        },
        {
          "indexed": false,
          "internalType": "string",
          "name": "password",
          "type": "string"
        },
        {
          "indexed": false,
          "internalType": "bool",
          "name": "isActive",
          "type": "bool"
        },
        {
          "indexed": false,
          "internalType": "enum UserManager.UserRole",
          "name": "role",
          "type": "uint8"
        }
      ],
      "name": "UserSignUp",
      "type": "event"
    },
    {
      "anonymous": false,
      "inputs": [
        {
          "indexed": true,
          "internalType": "address",
          "name": "userAddress",
          "type": "address"
        }
      ],
      "name": "UserUnblocked",
      "type": "event"
    },
    {
      "anonymous": false,
      "inputs": [
        {
          "indexed": true,
          "internalType": "address",
          "name": "userAddress",
          "type": "address"
        },
        {
          "indexed": false,
          "internalType": "string",
          "name": "registrationNumber",
          "type": "string"
        },
        {
          "indexed": false,
          "internalType": "string",
          "name": "make",
          "type": "string"
        },
        {
          "indexed": false,
          "internalType": "string",
          "name": "model",
          "type": "string"
        },
        {
          "indexed": false,
          "internalType": "string",
          "name": "color",
          "type": "string"
        }
      ],
      "name": "VehicleAdded",
      "type": "event"
    },
    {
      "anonymous": false,
      "inputs": [
        {
          "indexed": false,
          "internalType": "string",
          "name": "reg_no",
          "type": "string"
        },
        {
          "indexed": true,
          "internalType": "address",
          "name": "userAddress",
          "type": "address"
        },
        {
          "indexed": false,
          "internalType": "string",
          "name": "vehicletype",
          "type": "string"
        }
      ],
      "name": "VehicleAdded",
      "type": "event"
    },
    {
      "inputs": [],
      "name": "activecount",
      "outputs": [
        {
          "internalType": "uint256",
          "name": "",
          "type": "uint256"
        }
      ],
      "stateMutability": "view",
      "type": "function",
      "constant": true
    },
    {
      "inputs": [],
      "name": "admincount",
      "outputs": [
        {
          "internalType": "uint256",
          "name": "",
          "type": "uint256"
        }
      ],
      "stateMutability": "view",
      "type": "function",
      "constant": true
    },
    {
      "inputs": [],
      "name": "blockedcount",
      "outputs": [
        {
          "internalType": "uint256",
          "name": "",
          "type": "uint256"
        }
      ],
      "stateMutability": "view",
      "type": "function",
      "constant": true
    },
    {
      "inputs": [
        {
          "internalType": "string",
          "name": "",
          "type": "string"
        }
      ],
      "name": "categoryToRate",
      "outputs": [
        {
          "internalType": "uint256",
          "name": "",
          "type": "uint256"
        }
      ],
      "stateMutability": "view",
      "type": "function",
      "constant": true
    },
    {
      "inputs": [
        {
          "internalType": "uint256",
          "name": "",
          "type": "uint256"
        }
      ],
      "name": "challandetails",
      "outputs": [
        {
          "internalType": "string",
          "name": "vehicleNo",
          "type": "string"
        },
        {
          "internalType": "uint256",
          "name": "time",
          "type": "uint256"
        },
        {
          "internalType": "uint256",
          "name": "challanPrice",
          "type": "uint256"
        },
        {
          "internalType": "string",
          "name": "reason",
          "type": "string"
        },
        {
          "internalType": "address",
          "name": "issuedby",
          "type": "address"
        },
        {
          "internalType": "bool",
          "name": "isPaid",
          "type": "bool"
        }
      ],
      "stateMutability": "view",
      "type": "function",
      "constant": true
    },
    {
      "inputs": [],
      "name": "customercount",
      "outputs": [
        {
          "internalType": "uint256",
          "name": "",
          "type": "uint256"
        }
      ],
      "stateMutability": "view",
      "type": "function",
      "constant": true
    },
    {
      "inputs": [],
      "name": "employeecount",
      "outputs": [
        {
          "internalType": "uint256",
          "name": "",
          "type": "uint256"
        }
      ],
      "stateMutability": "view",
      "type": "function",
      "constant": true
    },
    {
      "inputs": [
        {
          "internalType": "uint256",
          "name": "",
          "type": "uint256"
        }
      ],
      "name": "tolldetails",
      "outputs": [
        {
          "internalType": "string",
          "name": "vehicleNo",
          "type": "string"
        },
        {
          "internalType": "uint256",
          "name": "Time",
          "type": "uint256"
        },
        {
          "internalType": "string",
          "name": "startingPoint",
          "type": "string"
        },
        {
          "internalType": "string",
          "name": "endingPoint",
          "type": "string"
        },
        {
          "internalType": "uint256",
          "name": "totalDistance",
          "type": "uint256"
        },
        {
          "internalType": "string",
          "name": "highwayNo",
          "type": "string"
        },
        {
          "internalType": "address",
          "name": "issuedby",
          "type": "address"
        },
        {
          "internalType": "uint256",
          "name": "payamount",
          "type": "uint256"
        }
      ],
      "stateMutability": "view",
      "type": "function",
      "constant": true
    },
    {
      "inputs": [
        {
          "internalType": "uint256",
          "name": "",
          "type": "uint256"
        }
      ],
      "name": "userAddresses",
      "outputs": [
        {
          "internalType": "address",
          "name": "",
          "type": "address"
        }
      ],
      "stateMutability": "view",
      "type": "function",
      "constant": true
    },
    {
      "inputs": [
        {
          "internalType": "address",
          "name": "",
          "type": "address"
        }
      ],
      "name": "users",
      "outputs": [
        {
          "internalType": "string",
          "name": "name",
          "type": "string"
        },
        {
          "internalType": "string",
          "name": "email",
          "type": "string"
        },
        {
          "internalType": "string",
          "name": "password",
          "type": "string"
        },
        {
          "internalType": "bool",
          "name": "isActive",
          "type": "bool"
        },
        {
          "internalType": "enum UserManager.UserRole",
          "name": "role",
          "type": "uint8"
        }
      ],
      "stateMutability": "view",
      "type": "function",
      "constant": true
    },
    {
      "inputs": [
        {
          "internalType": "string",
          "name": "",
          "type": "string"
        }
      ],
      "name": "vehicledetails",
      "outputs": [
        {
          "internalType": "string",
          "name": "vehicleType",
          "type": "string"
        },
        {
          "internalType": "address",
          "name": "ownerAddress",
          "type": "address"
        }
      ],
      "stateMutability": "view",
      "type": "function",
      "constant": true
    },
    {
      "inputs": [
        {
          "internalType": "string",
          "name": "_name",
          "type": "string"
        },
        {
          "internalType": "string",
          "name": "_email",
          "type": "string"
        },
        {
          "internalType": "string",
          "name": "_password",
          "type": "string"
        }
      ],
      "name": "signUp",
      "outputs": [],
      "stateMutability": "nonpayable",
      "type": "function"
    },
    {
      "inputs": [
        {
          "internalType": "string",
          "name": "_password",
          "type": "string"
        },
        {
          "internalType": "enum UserManager.UserRole",
          "name": "_role",
          "type": "uint8"
        }
      ],
      "name": "login",
      "outputs": [
        {
          "internalType": "bool",
          "name": "",
          "type": "bool"
        }
      ],
      "stateMutability": "nonpayable",
      "type": "function"
    },
    {
      "inputs": [
        {
          "internalType": "address",
          "name": "_userAddress",
          "type": "address"
        },
        {
          "internalType": "enum UserManager.UserRole",
          "name": "_newRole",
          "type": "uint8"
        }
      ],
      "name": "changeUserRole",
      "outputs": [],
      "stateMutability": "nonpayable",
      "type": "function"
    },
    {
      "inputs": [
        {
          "internalType": "address",
          "name": "_userAddress",
          "type": "address"
        }
      ],
      "name": "blockUser",
      "outputs": [],
      "stateMutability": "nonpayable",
      "type": "function"
    },
    {
      "inputs": [
        {
          "internalType": "address",
          "name": "_userAddress",
          "type": "address"
        }
      ],
      "name": "unblockUser",
      "outputs": [],
      "stateMutability": "nonpayable",
      "type": "function"
    },
    {
      "inputs": [],
      "name": "usercount",
      "outputs": [
        {
          "internalType": "uint256",
          "name": "",
          "type": "uint256"
        },
        {
          "internalType": "uint256",
          "name": "",
          "type": "uint256"
        },
        {
          "internalType": "uint256",
          "name": "",
          "type": "uint256"
        },
        {
          "internalType": "uint256",
          "name": "",
          "type": "uint256"
        },
        {
          "internalType": "uint256",
          "name": "",
          "type": "uint256"
        },
        {
          "internalType": "uint256",
          "name": "",
          "type": "uint256"
        }
      ],
      "stateMutability": "view",
      "type": "function",
      "constant": true
    },
    {
      "inputs": [
        {
          "internalType": "address",
          "name": "_owner",
          "type": "address"
        },
        {
          "internalType": "string",
          "name": "reg_no",
          "type": "string"
        },
        {
          "internalType": "string",
          "name": "vehicletype",
          "type": "string"
        }
      ],
      "name": "addvehicle",
      "outputs": [],
      "stateMutability": "nonpayable",
      "type": "function"
    },
    {
      "inputs": [
        {
          "internalType": "string",
          "name": "reg_no",
          "type": "string"
        },
        {
          "internalType": "string",
          "name": "startingPoint",
          "type": "string"
        },
        {
          "internalType": "string",
          "name": "endingPoint",
          "type": "string"
        },
        {
          "internalType": "uint256",
          "name": "totalDistance",
          "type": "uint256"
        },
        {
          "internalType": "string",
          "name": "highwayNo",
          "type": "string"
        }
      ],
      "name": "addToll",
      "outputs": [],
      "stateMutability": "nonpayable",
      "type": "function"
    },
    {
      "inputs": [
        {
          "internalType": "string",
          "name": "reg_no",
          "type": "string"
        },
        {
          "internalType": "uint256",
          "name": "challanPrice",
          "type": "uint256"
        },
        {
          "internalType": "string",
          "name": "reason",
          "type": "string"
        }
      ],
      "name": "addChallan",
      "outputs": [],
      "stateMutability": "nonpayable",
      "type": "function"
    },
    {
      "inputs": [],
      "name": "getAllUserAddresses",
      "outputs": [
        {
          "internalType": "address[]",
          "name": "",
          "type": "address[]"
        }
      ],
      "stateMutability": "view",
      "type": "function",
      "constant": true
    },
    {
      "inputs": [
        {
          "internalType": "address",
          "name": "userAddress",
          "type": "address"
        }
      ],
      "name": "getChallanIds",
      "outputs": [
        {
          "internalType": "uint256[]",
          "name": "",
          "type": "uint256[]"
        }
      ],
      "stateMutability": "view",
      "type": "function",
      "constant": true
    },
    {
      "inputs": [
        {
          "internalType": "address",
          "name": "userAddress",
          "type": "address"
        }
      ],
      "name": "getTollIds",
      "outputs": [
        {
          "internalType": "uint256[]",
          "name": "",
          "type": "uint256[]"
        }
      ],
      "stateMutability": "view",
      "type": "function",
      "constant": true
    },
    {
      "inputs": [
        {
          "internalType": "address",
          "name": "userAddress",
          "type": "address"
        }
      ],
      "name": "getvehicleIds",
      "outputs": [
        {
          "internalType": "string[]",
          "name": "",
          "type": "string[]"
        }
      ],
      "stateMutability": "view",
      "type": "function",
      "constant": true
    },
    {
      "inputs": [
        {
          "internalType": "uint256",
          "name": "index",
          "type": "uint256"
        }
      ],
      "name": "getTollByIndex",
      "outputs": [
        {
          "components": [
            {
              "internalType": "string",
              "name": "vehicleNo",
              "type": "string"
            },
            {
              "internalType": "uint256",
              "name": "Time",
              "type": "uint256"
            },
            {
              "internalType": "string",
              "name": "startingPoint",
              "type": "string"
            },
            {
              "internalType": "string",
              "name": "endingPoint",
              "type": "string"
            },
            {
              "internalType": "uint256",
              "name": "totalDistance",
              "type": "uint256"
            },
            {
              "internalType": "string",
              "name": "highwayNo",
              "type": "string"
            },
            {
              "internalType": "address",
              "name": "issuedby",
              "type": "address"
            },
            {
              "internalType": "uint256",
              "name": "payamount",
              "type": "uint256"
            }
          ],
          "internalType": "struct UserManager.Toll",
          "name": "",
          "type": "tuple"
        }
      ],
      "stateMutability": "view",
      "type": "function",
      "constant": true
    },
    {
      "inputs": [
        {
          "internalType": "uint256",
          "name": "index",
          "type": "uint256"
        }
      ],
      "name": "getChallanByIndex",
      "outputs": [
        {
          "components": [
            {
              "internalType": "string",
              "name": "vehicleNo",
              "type": "string"
            },
            {
              "internalType": "uint256",
              "name": "time",
              "type": "uint256"
            },
            {
              "internalType": "uint256",
              "name": "challanPrice",
              "type": "uint256"
            },
            {
              "internalType": "string",
              "name": "reason",
              "type": "string"
            },
            {
              "internalType": "address",
              "name": "issuedby",
              "type": "address"
            },
            {
              "internalType": "bool",
              "name": "isPaid",
              "type": "bool"
            }
          ],
          "internalType": "struct UserManager.Challan",
          "name": "",
          "type": "tuple"
        }
      ],
      "stateMutability": "view",
      "type": "function",
      "constant": true
    },
    {
      "inputs": [
        {
          "internalType": "address",
          "name": "_userAddress",
          "type": "address"
        }
      ],
      "name": "viewUserDetails",
      "outputs": [
        {
          "internalType": "string",
          "name": "",
          "type": "string"
        },
        {
          "internalType": "string",
          "name": "",
          "type": "string"
        },
        {
          "internalType": "bool",
          "name": "",
          "type": "bool"
        },
        {
          "internalType": "enum UserManager.UserRole",
          "name": "",
          "type": "uint8"
        }
      ],
      "stateMutability": "view",
      "type": "function",
      "constant": true
    }
  ],
  "bytecode": "0x60806040523480156200001157600080fd5b50600160056040516200002490620007dd565b90815260200160405180910390208190555060026005604051620000489062000839565b908152602001604051809103902081905550600360056040516200006c90620007c6565b908152602001604051809103902081905550600460056040516200009090620007af565b908152602001604051809103902081905550600580604051620000b39062000850565b90815260200160405180910390208190555060046005604051620000d7906200087e565b90815260200160405180910390208190555060036005604051620000fb906200080b565b908152602001604051809103902081905550600660056040516200011f9062000822565b908152602001604051809103902081905550600060056040516200014390620007f4565b908152602001604051809103902081905550600580604051620001669062000867565b90815260200160405180910390208190555060003390506040518060400160405280600881526020017f736861696c657368000000000000000000000000000000000000000000000000815250600360008373ffffffffffffffffffffffffffffffffffffffff1673ffffffffffffffffffffffffffffffffffffffff16815260200190815260200160002060000190805190602001906200020a929190620004e2565b506040518060400160405280600e81526020017f7368616940676d61696c2e636f6d000000000000000000000000000000000000815250600360008373ffffffffffffffffffffffffffffffffffffffff1673ffffffffffffffffffffffffffffffffffffffff168152602001908152602001600020600101908051906020019062000298929190620004e2565b506040518060400160405280600481526020017f3132333400000000000000000000000000000000000000000000000000000000815250600360008373ffffffffffffffffffffffffffffffffffffffff1673ffffffffffffffffffffffffffffffffffffffff168152602001908152602001600020600201908051906020019062000326929190620004e2565b506001600360008373ffffffffffffffffffffffffffffffffffffffff1673ffffffffffffffffffffffffffffffffffffffff16815260200190815260200160002060030160006101000a81548160ff0219169083151502179055506000600360008373ffffffffffffffffffffffffffffffffffffffff1673ffffffffffffffffffffffffffffffffffffffff16815260200190815260200160002060030160016101000a81548160ff02191690836002811115620003eb57620003ea62000a0f565b5b021790555060066000815480929190620004059062000992565b9190505550600960008154809291906200041f9062000992565b91905055506000819080600181540180825580915050600190039060005260206000200160009091909190916101000a81548173ffffffffffffffffffffffffffffffffffffffff021916908373ffffffffffffffffffffffffffffffffffffffff1602179055508073ffffffffffffffffffffffffffffffffffffffff167fb47f36152ee4c92eb4f27da8390139a9b7eb85f823d8cc5571647aa267b5ec3860016000604051620004d392919062000895565b60405180910390a25062000c99565b828054620004f0906200095c565b90600052602060002090601f01602090048101928262000514576000855562000560565b82601f106200052f57805160ff191683800117855562000560565b8280016001018555821562000560579182015b828111156200055f57825182559160200191906001019062000542565b5b5090506200056f919062000573565b5090565b5b808211156200058e57600081600090555060010162000574565b5090565b6200059d816200091d565b82525050565b620005ae8162000948565b82525050565b6000620005c360058362000912565b9150620005d08262000a6d565b600582019050919050565b6000620005ea600e8362000901565b9150620005f78262000a96565b602082019050919050565b60006200061160048362000901565b91506200061e8262000abf565b602082019050919050565b60006200063860188362000912565b9150620006458262000ae8565b601882019050919050565b60006200065f60188362000912565b91506200066c8262000b11565b601882019050919050565b60006200068660128362000912565b9150620006938262000b3a565b601282019050919050565b6000620006ad60158362000912565b9150620006ba8262000b63565b601582019050919050565b6000620006d4601f8362000912565b9150620006e18262000b8c565b601f82019050919050565b6000620006fb60128362000912565b9150620007088262000bb5565b601282019050919050565b60006200072260088362000901565b91506200072f8262000bde565b602082019050919050565b60006200074960118362000912565b9150620007568262000c07565b601182019050919050565b60006200077060128362000912565b91506200077d8262000c30565b601282019050919050565b60006200079760128362000912565b9150620007a48262000c59565b601282019050919050565b6000620007bc82620005b4565b9150819050919050565b6000620007d38262000629565b9150819050919050565b6000620007ea8262000650565b9150819050919050565b6000620008018262000677565b9150819050919050565b600062000818826200069e565b9150819050919050565b60006200082f82620006c5565b9150819050919050565b60006200084682620006ec565b9150819050919050565b60006200085d826200073a565b9150819050919050565b6000620008748262000761565b9150819050919050565b60006200088b8262000788565b9150819050919050565b600060a0820190508181036000830152620008b08162000713565b90508181036020830152620008c581620005db565b90508181036040830152620008da8162000602565b9050620008eb606083018562000592565b620008fa6080830184620005a3565b9392505050565b600082825260208201905092915050565b600081905092915050565b60008115159050919050565b6000819050620009398262000c82565b919050565b6000819050919050565b6000620009558262000929565b9050919050565b600060028204905060018216806200097557607f821691505b602082108114156200098c576200098b62000a3e565b5b50919050565b60006200099f826200093e565b91507fffffffffffffffffffffffffffffffffffffffffffffffffffffffffffffffff821415620009d557620009d4620009e0565b5b600182019050919050565b7f4e487b7100000000000000000000000000000000000000000000000000000000600052601160045260246000fd5b7f4e487b7100000000000000000000000000000000000000000000000000000000600052602160045260246000fd5b7f4e487b7100000000000000000000000000000000000000000000000000000000600052602260045260246000fd5b7f4275736573000000000000000000000000000000000000000000000000000000600082015250565b7f7368616940676d61696c2e636f6d000000000000000000000000000000000000600082015250565b7f3132333400000000000000000000000000000000000000000000000000000000600082015250565b7f4c6967687420547275636b7320616e64205069636b7570730000000000000000600082015250565b7f4d6f746f726379636c657320616e642053636f6f746572730000000000000000600082015250565b7f456d657267656e63792056656869636c65730000000000000000000000000000600082015250565b7f547261696c65727320616e64204361726176616e730000000000000000000000600082015250565b7f436f6e737472756374696f6e20616e642068656176792056656869636c657300600082015250565b7f50617373656e6765722056656869636c65730000000000000000000000000000600082015250565b7f736861696c657368000000000000000000000000000000000000000000000000600082015250565b7f436f6d6d65726369616c20547275636b73000000000000000000000000000000600082015250565b7f5370656369616c74792056656869636c65730000000000000000000000000000600082015250565b7f52567320616e64204d6f746f72686f6d65730000000000000000000000000000600082015250565b6003811062000c965762000c9562000a0f565b5b50565b614b498062000ca96000396000f3fe608060405234801561001057600080fd5b50600436106101a95760003560e01c806380b3c748116100f9578063cd3e02de11610097578063dc304aef11610071578063dc304aef14610542578063fabc8b1114610560578063fe420da61461057e578063ffb9dbba1461059a576101a9565b8063cd3e02de146104d6578063ce9f1b0314610506578063d670c3c214610524576101a9565b8063b07eeb2a116100d3578063b07eeb2a14610429578063bef3a2b814610459578063c1fbddf71461048a578063cb2b6f14146104ba576101a9565b806380b3c748146103a057806393ac4216146103be578063a87430ba146103f5576101a9565b80633da0132511610166578063502c9bd511610140578063502c9bd5146102f4578063617251fa146103245780636fe7db6d1461034057806370eaf84314610370576101a9565b80633da013251461028c5780633feaf2e4146102a8578063495f4505146102c4576101a9565b80630f322c1e146101ae57806315f50415146101d157806321d0999d146101ed57806323d2c6501461021d5780632f3300231461025257806339d319e514610270575b600080fd5b6101b66105cd565b6040516101c896959493929190614378565b60405180910390f35b6101eb60048036038101906101e69190613671565b6106bf565b005b61020760048036038101906102029190613483565b6109ab565b6040516102149190613e2e565b60405180910390f35b610237600480360381019061023291906136fc565b610c58565b6040516102499695949392919061411a565b60405180910390f35b61025a610de1565b6040516102679190613dc8565b60405180910390f35b61028a60048036038101906102859190613342565b610e6f565b005b6102a660048036038101906102a19190613342565b611104565b005b6102c260048036038101906102bd91906133af565b611398565b005b6102de60048036038101906102d99190613342565b6115b5565b6040516102eb9190613e0c565b60405180910390f35b61030e600480360381019061030991906136fc565b61164f565b60405161031b9190613dad565b60405180910390f35b61033e6004803603810190610339919061336f565b61168e565b005b61035a60048036038101906103559190613342565b611a8b565b6040516103679190613e0c565b60405180910390f35b61038a60048036038101906103859190613342565b611b25565b6040516103979190613dea565b60405180910390f35b6103a8611c40565b6040516103b5919061435d565b60405180910390f35b6103d860048036038101906103d391906136fc565b611c46565b6040516103ec98979695949392919061401f565b60405180910390f35b61040f600480360381019061040a9190613342565b611ede565b604051610420959493929190613f2c565b60405180910390f35b610443600480360381019061043e919061343a565b6120c6565b604051610450919061435d565b60405180910390f35b610473600480360381019061046e919061343a565b6120f4565b604051610481929190613e72565b60405180910390f35b6104a4600480360381019061049f91906136fc565b6121d6565b6040516104b19190614319565b60405180910390f35b6104d460048036038101906104cf91906134df565b61240f565b005b6104f060048036038101906104eb91906136fc565b61275c565b6040516104fd919061433b565b60405180910390f35b61050e612aa9565b60405161051b919061435d565b60405180910390f35b61052c612aaf565b604051610539919061435d565b60405180910390f35b61054a612ab5565b604051610557919061435d565b60405180910390f35b610568612abb565b604051610575919061435d565b60405180910390f35b61059860048036038101906105939190613586565b612ac1565b005b6105b460048036038101906105af9190613342565b612ef6565b6040516105c49493929190613ed9565b60405180910390f35b600080600080600080600060028111156105ea576105e96147ab565b5b600360003373ffffffffffffffffffffffffffffffffffffffff1673ffffffffffffffffffffffffffffffffffffffff16815260200190815260200160002060030160019054906101000a900460ff16600281111561064c5761064b6147ab565b5b1461068c576040517f08c379a0000000000000000000000000000000000000000000000000000000008152600401610683906142b9565b60405180910390fd5b600a5460095461069c9190614547565b600654600754600854600954600a54955095509550955095509550909192939495565b60008211610702576040517f08c379a00000000000000000000000000000000000000000000000000000000081526004016106f9906141b9565b60405180910390fd5b60006004846040516107149190613d96565b908152602001604051809103902060010160009054906101000a900473ffffffffffffffffffffffffffffffffffffffff169050600073ffffffffffffffffffffffffffffffffffffffff168173ffffffffffffffffffffffffffffffffffffffff1614156107b8576040517f08c379a00000000000000000000000000000000000000000000000000000000081526004016107af90614299565b60405180910390fd5b60006002805490509050600060019050600033905060006040518060c001604052808981526020014281526020018881526020018781526020018373ffffffffffffffffffffffffffffffffffffffff16815260200184151581525090506002819080600181540180825580915050600190039060005260206000209060050201600090919091909150600082015181600001908051906020019061085e929190613147565b506020820151816001015560408201518160020155606082015181600301908051906020019061088f929190613147565b5060808201518160040160006101000a81548173ffffffffffffffffffffffffffffffffffffffff021916908373ffffffffffffffffffffffffffffffffffffffff16021790555060a08201518160040160146101000a81548160ff0219169083151502179055505050600360008673ffffffffffffffffffffffffffffffffffffffff1673ffffffffffffffffffffffffffffffffffffffff1681526020019081526020016000206004018490806001815401808255809150506001900390600052602060002001600090919091909150557ffa8ab6fe0fac76f306c4c016577d82e190d36553f901bb8fa92b6d8e5627a36f88428989866040516109999594939291906140b9565b60405180910390a15050505050505050565b600080600360003373ffffffffffffffffffffffffffffffffffffffff1673ffffffffffffffffffffffffffffffffffffffff16815260200190815260200160002060000180546109fb906146d0565b905011610a3d576040517f08c379a0000000000000000000000000000000000000000000000000000000008152600401610a34906142d9565b60405180910390fd5b600360003373ffffffffffffffffffffffffffffffffffffffff1673ffffffffffffffffffffffffffffffffffffffff16815260200190815260200160002060030160009054906101000a900460ff16610acc576040517f08c379a0000000000000000000000000000000000000000000000000000000008152600401610ac390614279565b60405180910390fd5b8280519060200120600360003373ffffffffffffffffffffffffffffffffffffffff1673ffffffffffffffffffffffffffffffffffffffff168152602001908152602001600020600201604051610b239190613d7f565b604051809103902014610b395760009050610c52565b816002811115610b4c57610b4b6147ab565b5b600360003373ffffffffffffffffffffffffffffffffffffffff1673ffffffffffffffffffffffffffffffffffffffff16815260200190815260200160002060030160019054906101000a900460ff166002811115610bae57610bad6147ab565b5b14610bbc5760009050610c52565b3373ffffffffffffffffffffffffffffffffffffffff167fcbbc0d71980c070e4247f7eb3309479082bc2851cd2db37d2d1a0595808e0e22600360003373ffffffffffffffffffffffffffffffffffffffff1673ffffffffffffffffffffffffffffffffffffffff16815260200190815260200160002060000184604051610c45929190614189565b60405180910390a2600190505b92915050565b60028181548110610c6857600080fd5b9060005260206000209060050201600091509050806000018054610c8b906146d0565b80601f0160208091040260200160405190810160405280929190818152602001828054610cb7906146d0565b8015610d045780601f10610cd957610100808354040283529160200191610d04565b820191906000526020600020905b815481529060010190602001808311610ce757829003601f168201915b505050505090806001015490806002015490806003018054610d25906146d0565b80601f0160208091040260200160405190810160405280929190818152602001828054610d51906146d0565b8015610d9e5780601f10610d7357610100808354040283529160200191610d9e565b820191906000526020600020905b815481529060010190602001808311610d8157829003601f168201915b5050505050908060040160009054906101000a900473ffffffffffffffffffffffffffffffffffffffff16908060040160149054906101000a900460ff16905086565b60606000805480602002602001604051908101604052809291908181526020018280548015610e6557602002820191906000526020600020905b8160009054906101000a900473ffffffffffffffffffffffffffffffffffffffff1673ffffffffffffffffffffffffffffffffffffffff1681526020019060010190808311610e1b575b5050505050905090565b60006002811115610e8357610e826147ab565b5b600360003373ffffffffffffffffffffffffffffffffffffffff1673ffffffffffffffffffffffffffffffffffffffff16815260200190815260200160002060030160019054906101000a900460ff166002811115610ee557610ee46147ab565b5b1480610f64575060016002811115610f0057610eff6147ab565b5b600360003373ffffffffffffffffffffffffffffffffffffffff1673ffffffffffffffffffffffffffffffffffffffff16815260200190815260200160002060030160019054906101000a900460ff166002811115610f6257610f616147ab565b5b145b610fa3576040517f08c379a0000000000000000000000000000000000000000000000000000000008152600401610f9a90614219565b60405180910390fd5b600360008273ffffffffffffffffffffffffffffffffffffffff1673ffffffffffffffffffffffffffffffffffffffff16815260200190815260200160002060030160009054906101000a900460ff1615611033576040517f08c379a000000000000000000000000000000000000000000000000000000000815260040161102a906142f9565b60405180910390fd5b6001600360008373ffffffffffffffffffffffffffffffffffffffff1673ffffffffffffffffffffffffffffffffffffffff16815260200190815260200160002060030160006101000a81548160ff021916908315150217905550600960008154809291906110a190614733565b9190505550600a60008154809291906110b9906146a6565b91905055508073ffffffffffffffffffffffffffffffffffffffff167f798117ec059ab8d319461ef2502b1f9d8a47cd966bfd1f3e23b6f26c30bebb7760405160405180910390a250565b60006002811115611118576111176147ab565b5b600360003373ffffffffffffffffffffffffffffffffffffffff1673ffffffffffffffffffffffffffffffffffffffff16815260200190815260200160002060030160019054906101000a900460ff16600281111561117a576111796147ab565b5b14806111f9575060016002811115611195576111946147ab565b5b600360003373ffffffffffffffffffffffffffffffffffffffff1673ffffffffffffffffffffffffffffffffffffffff16815260200190815260200160002060030160019054906101000a900460ff1660028111156111f7576111f66147ab565b5b145b611238576040517f08c379a000000000000000000000000000000000000000000000000000000000815260040161122f90614219565b60405180910390fd5b600360008273ffffffffffffffffffffffffffffffffffffffff1673ffffffffffffffffffffffffffffffffffffffff16815260200190815260200160002060030160009054906101000a900460ff166112c7576040517f08c379a00000000000000000000000000000000000000000000000000000000081526004016112be90614239565b60405180910390fd5b6000600360008373ffffffffffffffffffffffffffffffffffffffff1673ffffffffffffffffffffffffffffffffffffffff16815260200190815260200160002060030160006101000a81548160ff02191690831515021790555060096000815480929190611335906146a6565b9190505550600a600081548092919061134d90614733565b91905055508073ffffffffffffffffffffffffffffffffffffffff167fca86d8c91ca6d00afd863578cc633a0901fad724592f89649629fe65f61410d260405160405180910390a250565b600060028111156113ac576113ab6147ab565b5b600360003373ffffffffffffffffffffffffffffffffffffffff1673ffffffffffffffffffffffffffffffffffffffff16815260200190815260200160002060030160019054906101000a900460ff16600281111561140e5761140d6147ab565b5b1461144e576040517f08c379a0000000000000000000000000000000000000000000000000000000008152600401611445906142b9565b60405180910390fd5b8260048360405161145f9190613d96565b908152602001604051809103902060010160006101000a81548173ffffffffffffffffffffffffffffffffffffffff021916908373ffffffffffffffffffffffffffffffffffffffff160217905550806004836040516114bf9190613d96565b908152602001604051809103902060000190805190602001906114e3929190613147565b50600360008473ffffffffffffffffffffffffffffffffffffffff1673ffffffffffffffffffffffffffffffffffffffff1681526020019081526020016000206006018290806001815401808255809150506001900390600052602060002001600090919091909150908051906020019061155f929190613147565b508273ffffffffffffffffffffffffffffffffffffffff167f107d37e0f6544eb40feb289ef73a3d817f57255807c8d47fd6dc82a1881b639083836040516115a8929190613ea2565b60405180910390a2505050565b6060600360008373ffffffffffffffffffffffffffffffffffffffff1673ffffffffffffffffffffffffffffffffffffffff16815260200190815260200160002060040180548060200260200160405190810160405280929190818152602001828054801561164357602002820191906000526020600020905b81548152602001906001019080831161162f575b50505050509050919050565b6000818154811061165f57600080fd5b906000526020600020016000915054906101000a900473ffffffffffffffffffffffffffffffffffffffff1681565b600060028111156116a2576116a16147ab565b5b600360003373ffffffffffffffffffffffffffffffffffffffff1673ffffffffffffffffffffffffffffffffffffffff16815260200190815260200160002060030160019054906101000a900460ff166002811115611704576117036147ab565b5b148061178357506001600281111561171f5761171e6147ab565b5b600360003373ffffffffffffffffffffffffffffffffffffffff1673ffffffffffffffffffffffffffffffffffffffff16815260200190815260200160002060030160019054906101000a900460ff166002811115611781576117806147ab565b5b145b6117c2576040517f08c379a00000000000000000000000000000000000000000000000000000000081526004016117b990614219565b60405180910390fd5b6000600360008473ffffffffffffffffffffffffffffffffffffffff1673ffffffffffffffffffffffffffffffffffffffff16815260200190815260200160002060030160019054906101000a900460ff16905081600360008573ffffffffffffffffffffffffffffffffffffffff1673ffffffffffffffffffffffffffffffffffffffff16815260200190815260200160002060030160016101000a81548160ff0219169083600281111561187b5761187a6147ab565b5b021790555060006002811115611894576118936147ab565b5b8160028111156118a7576118a66147ab565b5b14156118ca57600660008154809291906118c0906146a6565b919050555061195b565b600160028111156118de576118dd6147ab565b5b8160028111156118f1576118f06147ab565b5b1415611914576007600081548092919061190a906146a6565b919050555061195a565b600280811115611927576119266147ab565b5b81600281111561193a576119396147ab565b5b14156119595760086000815480929190611953906146a6565b91905055505b5b5b6000600281111561196f5761196e6147ab565b5b826002811115611982576119816147ab565b5b14156119a5576006600081548092919061199b90614733565b9190505550611a36565b600160028111156119b9576119b86147ab565b5b8260028111156119cc576119cb6147ab565b5b14156119ef57600760008154809291906119e590614733565b9190505550611a35565b600280811115611a0257611a016147ab565b5b826002811115611a1557611a146147ab565b5b1415611a345760086000815480929190611a2e90614733565b91905055505b5b5b8273ffffffffffffffffffffffffffffffffffffffff167f049e57790a6c10773859a0182836a51c3e3f74b3ec1e49c1db006097370cc5f18284604051611a7e929190613e49565b60405180910390a2505050565b6060600360008373ffffffffffffffffffffffffffffffffffffffff1673ffffffffffffffffffffffffffffffffffffffff168152602001908152602001600020600501805480602002602001604051908101604052809291908181526020018280548015611b1957602002820191906000526020600020905b815481526020019060010190808311611b05575b50505050509050919050565b6060600360008373ffffffffffffffffffffffffffffffffffffffff1673ffffffffffffffffffffffffffffffffffffffff168152602001908152602001600020600601805480602002602001604051908101604052809291908181526020016000905b82821015611c35578382906000526020600020018054611ba8906146d0565b80601f0160208091040260200160405190810160405280929190818152602001828054611bd4906146d0565b8015611c215780601f10611bf657610100808354040283529160200191611c21565b820191906000526020600020905b815481529060010190602001808311611c0457829003601f168201915b505050505081526020019060010190611b89565b505050509050919050565b600a5481565b60018181548110611c5657600080fd5b9060005260206000209060080201600091509050806000018054611c79906146d0565b80601f0160208091040260200160405190810160405280929190818152602001828054611ca5906146d0565b8015611cf25780601f10611cc757610100808354040283529160200191611cf2565b820191906000526020600020905b815481529060010190602001808311611cd557829003601f168201915b505050505090806001015490806002018054611d0d906146d0565b80601f0160208091040260200160405190810160405280929190818152602001828054611d39906146d0565b8015611d865780601f10611d5b57610100808354040283529160200191611d86565b820191906000526020600020905b815481529060010190602001808311611d6957829003601f168201915b505050505090806003018054611d9b906146d0565b80601f0160208091040260200160405190810160405280929190818152602001828054611dc7906146d0565b8015611e145780601f10611de957610100808354040283529160200191611e14565b820191906000526020600020905b815481529060010190602001808311611df757829003601f168201915b505050505090806004015490806005018054611e2f906146d0565b80601f0160208091040260200160405190810160405280929190818152602001828054611e5b906146d0565b8015611ea85780601f10611e7d57610100808354040283529160200191611ea8565b820191906000526020600020905b815481529060010190602001808311611e8b57829003601f168201915b5050505050908060060160009054906101000a900473ffffffffffffffffffffffffffffffffffffffff16908060070154905088565b6003602052806000526040600020600091509050806000018054611f01906146d0565b80601f0160208091040260200160405190810160405280929190818152602001828054611f2d906146d0565b8015611f7a5780601f10611f4f57610100808354040283529160200191611f7a565b820191906000526020600020905b815481529060010190602001808311611f5d57829003601f168201915b505050505090806001018054611f8f906146d0565b80601f0160208091040260200160405190810160405280929190818152602001828054611fbb906146d0565b80156120085780601f10611fdd57610100808354040283529160200191612008565b820191906000526020600020905b815481529060010190602001808311611feb57829003601f168201915b50505050509080600201805461201d906146d0565b80601f0160208091040260200160405190810160405280929190818152602001828054612049906146d0565b80156120965780601f1061206b57610100808354040283529160200191612096565b820191906000526020600020905b81548152906001019060200180831161207957829003601f168201915b5050505050908060030160009054906101000a900460ff16908060030160019054906101000a900460ff16905085565b6005818051602081018201805184825260208301602085012081835280955050505050506000915090505481565b60048180516020810182018051848252602083016020850120818352809550505050505060009150905080600001805461212d906146d0565b80601f0160208091040260200160405190810160405280929190818152602001828054612159906146d0565b80156121a65780601f1061217b576101008083540402835291602001916121a6565b820191906000526020600020905b81548152906001019060200180831161218957829003601f168201915b5050505050908060010160009054906101000a900473ffffffffffffffffffffffffffffffffffffffff16905082565b6121de6131cd565b600082101580156121f3575060028054905082105b612232576040517f08c379a0000000000000000000000000000000000000000000000000000000008152600401612229906141d9565b60405180910390fd5b6002828154811061224657612245614809565b5b90600052602060002090600502016040518060c001604052908160008201805461226f906146d0565b80601f016020809104026020016040519081016040528092919081815260200182805461229b906146d0565b80156122e85780601f106122bd576101008083540402835291602001916122e8565b820191906000526020600020905b8154815290600101906020018083116122cb57829003601f168201915b505050505081526020016001820154815260200160028201548152602001600382018054612315906146d0565b80601f0160208091040260200160405190810160405280929190818152602001828054612341906146d0565b801561238e5780601f106123635761010080835404028352916020019161238e565b820191906000526020600020905b81548152906001019060200180831161237157829003601f168201915b505050505081526020016004820160009054906101000a900473ffffffffffffffffffffffffffffffffffffffff1673ffffffffffffffffffffffffffffffffffffffff1673ffffffffffffffffffffffffffffffffffffffff1681526020016004820160149054906101000a900460ff1615151515815250509050919050565b6000600360003373ffffffffffffffffffffffffffffffffffffffff1673ffffffffffffffffffffffffffffffffffffffff168152602001908152602001600020600001805461245e906146d0565b905011156124a1576040517f08c379a000000000000000000000000000000000000000000000000000000000815260040161249890614259565b60405180910390fd5b82600360003373ffffffffffffffffffffffffffffffffffffffff1673ffffffffffffffffffffffffffffffffffffffff16815260200190815260200160002060000190805190602001906124f7929190613147565b5081600360003373ffffffffffffffffffffffffffffffffffffffff1673ffffffffffffffffffffffffffffffffffffffff168152602001908152602001600020600101908051906020019061254e929190613147565b5080600360003373ffffffffffffffffffffffffffffffffffffffff1673ffffffffffffffffffffffffffffffffffffffff16815260200190815260200160002060020190805190602001906125a5929190613147565b506001600360003373ffffffffffffffffffffffffffffffffffffffff1673ffffffffffffffffffffffffffffffffffffffff16815260200190815260200160002060030160006101000a81548160ff0219169083151502179055506002600360003373ffffffffffffffffffffffffffffffffffffffff1673ffffffffffffffffffffffffffffffffffffffff16815260200190815260200160002060030160016101000a81548160ff02191690836002811115612667576126666147ab565b5b02179055506008600081548092919061267f90614733565b91905055506009600081548092919061269790614733565b91905055506000339080600181540180825580915050600190039060005260206000200160009091909190916101000a81548173ffffffffffffffffffffffffffffffffffffffff021916908373ffffffffffffffffffffffffffffffffffffffff1602179055503373ffffffffffffffffffffffffffffffffffffffff167fb47f36152ee4c92eb4f27da8390139a9b7eb85f823d8cc5571647aa267b5ec388484846001600260405161274f959493929190613f2c565b60405180910390a2505050565b61276461321b565b60008210158015612779575060018054905082105b6127b8576040517f08c379a00000000000000000000000000000000000000000000000000000000081526004016127af906141f9565b60405180910390fd5b600182815481106127cc576127cb614809565b5b9060005260206000209060080201604051806101000160405290816000820180546127f6906146d0565b80601f0160208091040260200160405190810160405280929190818152602001828054612822906146d0565b801561286f5780601f106128445761010080835404028352916020019161286f565b820191906000526020600020905b81548152906001019060200180831161285257829003601f168201915b5050505050815260200160018201548152602001600282018054612892906146d0565b80601f01602080910402602001604051908101604052809291908181526020018280546128be906146d0565b801561290b5780601f106128e05761010080835404028352916020019161290b565b820191906000526020600020905b8154815290600101906020018083116128ee57829003601f168201915b50505050508152602001600382018054612924906146d0565b80601f0160208091040260200160405190810160405280929190818152602001828054612950906146d0565b801561299d5780601f106129725761010080835404028352916020019161299d565b820191906000526020600020905b81548152906001019060200180831161298057829003601f168201915b50505050508152602001600482015481526020016005820180546129c0906146d0565b80601f01602080910402602001604051908101604052809291908181526020018280546129ec906146d0565b8015612a395780601f10612a0e57610100808354040283529160200191612a39565b820191906000526020600020905b815481529060010190602001808311612a1c57829003601f168201915b505050505081526020016006820160009054906101000a900473ffffffffffffffffffffffffffffffffffffffff1673ffffffffffffffffffffffffffffffffffffffff1673ffffffffffffffffffffffffffffffffffffffff1681526020016007820154815250509050919050565b60065481565b60075481565b60095481565b60085481565b60006002811115612ad557612ad46147ab565b5b600360003373ffffffffffffffffffffffffffffffffffffffff1673ffffffffffffffffffffffffffffffffffffffff16815260200190815260200160002060030160019054906101000a900460ff166002811115612b3757612b366147ab565b5b1480612bb6575060016002811115612b5257612b516147ab565b5b600360003373ffffffffffffffffffffffffffffffffffffffff1673ffffffffffffffffffffffffffffffffffffffff16815260200190815260200160002060030160019054906101000a900460ff166002811115612bb457612bb36147ab565b5b145b612bf5576040517f08c379a0000000000000000000000000000000000000000000000000000000008152600401612bec90614219565b60405180910390fd5b6000600486604051612c079190613d96565b908152602001604051809103902060010160009054906101000a900473ffffffffffffffffffffffffffffffffffffffff169050600073ffffffffffffffffffffffffffffffffffffffff168173ffffffffffffffffffffffffffffffffffffffff161415612cab576040517f08c379a0000000000000000000000000000000000000000000000000000000008152600401612ca290614299565b60405180910390fd5b6000836002612cba919061459d565b9050600033905060006040518061010001604052808a81526020014281526020018981526020018881526020018781526020018681526020018373ffffffffffffffffffffffffffffffffffffffff1681526020018481525090506000600180549050905060018290806001815401808255809150506001900390600052602060002090600802016000909190919091506000820151816000019080519060200190612d67929190613147565b50602082015181600101556040820151816002019080519060200190612d8e929190613147565b506060820151816003019080519060200190612dab929190613147565b506080820151816004015560a0820151816005019080519060200190612dd2929190613147565b5060c08201518160060160006101000a81548173ffffffffffffffffffffffffffffffffffffffff021916908373ffffffffffffffffffffffffffffffffffffffff16021790555060e082015181600701555050600360008673ffffffffffffffffffffffffffffffffffffffff1673ffffffffffffffffffffffffffffffffffffffff1681526020019081526020016000206005018190806001815401808255809150506001900390600052602060002001600090919091909150558273ffffffffffffffffffffffffffffffffffffffff167f7a351fafd02ffe15422465f859c5d82c6f7309167b4163d6968f85cae10f693b8b8b8b8b8b8a6000604051612ee29796959493929190613f94565b60405180910390a250505050505050505050565b606080600080600360008673ffffffffffffffffffffffffffffffffffffffff1673ffffffffffffffffffffffffffffffffffffffff168152602001908152602001600020600001600360008773ffffffffffffffffffffffffffffffffffffffff1673ffffffffffffffffffffffffffffffffffffffff168152602001908152602001600020600101600360008873ffffffffffffffffffffffffffffffffffffffff1673ffffffffffffffffffffffffffffffffffffffff16815260200190815260200160002060030160009054906101000a900460ff16600360008973ffffffffffffffffffffffffffffffffffffffff1673ffffffffffffffffffffffffffffffffffffffff16815260200190815260200160002060030160019054906101000a900460ff1683805461302c906146d0565b80601f0160208091040260200160405190810160405280929190818152602001828054613058906146d0565b80156130a55780601f1061307a576101008083540402835291602001916130a5565b820191906000526020600020905b81548152906001019060200180831161308857829003601f168201915b505050505093508280546130b8906146d0565b80601f01602080910402602001604051908101604052809291908181526020018280546130e4906146d0565b80156131315780601f1061310657610100808354040283529160200191613131565b820191906000526020600020905b81548152906001019060200180831161311457829003601f168201915b5050505050925093509350935093509193509193565b828054613153906146d0565b90600052602060002090601f01602090048101928261317557600085556131bc565b82601f1061318e57805160ff19168380011785556131bc565b828001600101855582156131bc579182015b828111156131bb5782518255916020019190600101906131a0565b5b5090506131c99190613276565b5090565b6040518060c0016040528060608152602001600081526020016000815260200160608152602001600073ffffffffffffffffffffffffffffffffffffffff1681526020016000151581525090565b604051806101000160405280606081526020016000815260200160608152602001606081526020016000815260200160608152602001600073ffffffffffffffffffffffffffffffffffffffff168152602001600081525090565b5b8082111561328f576000816000905550600101613277565b5090565b60006132a66132a1846143fe565b6143d9565b9050828152602081018484840111156132c2576132c161486c565b5b6132cd848285614664565b509392505050565b6000813590506132e481614ad5565b92915050565b6000813590506132f981614aec565b92915050565b600082601f83011261331457613313614867565b5b8135613324848260208601613293565b91505092915050565b60008135905061333c81614afc565b92915050565b60006020828403121561335857613357614876565b5b6000613366848285016132d5565b91505092915050565b6000806040838503121561338657613385614876565b5b6000613394858286016132d5565b92505060206133a5858286016132ea565b9150509250929050565b6000806000606084860312156133c8576133c7614876565b5b60006133d6868287016132d5565b935050602084013567ffffffffffffffff8111156133f7576133f6614871565b5b613403868287016132ff565b925050604084013567ffffffffffffffff81111561342457613423614871565b5b613430868287016132ff565b9150509250925092565b6000602082840312156134505761344f614876565b5b600082013567ffffffffffffffff81111561346e5761346d614871565b5b61347a848285016132ff565b91505092915050565b6000806040838503121561349a57613499614876565b5b600083013567ffffffffffffffff8111156134b8576134b7614871565b5b6134c4858286016132ff565b92505060206134d5858286016132ea565b9150509250929050565b6000806000606084860312156134f8576134f7614876565b5b600084013567ffffffffffffffff81111561351657613515614871565b5b613522868287016132ff565b935050602084013567ffffffffffffffff81111561354357613542614871565b5b61354f868287016132ff565b925050604084013567ffffffffffffffff8111156135705761356f614871565b5b61357c868287016132ff565b9150509250925092565b600080600080600060a086880312156135a2576135a1614876565b5b600086013567ffffffffffffffff8111156135c0576135bf614871565b5b6135cc888289016132ff565b955050602086013567ffffffffffffffff8111156135ed576135ec614871565b5b6135f9888289016132ff565b945050604086013567ffffffffffffffff81111561361a57613619614871565b5b613626888289016132ff565b93505060606136378882890161332d565b925050608086013567ffffffffffffffff81111561365857613657614871565b5b613664888289016132ff565b9150509295509295909350565b60008060006060848603121561368a57613689614876565b5b600084013567ffffffffffffffff8111156136a8576136a7614871565b5b6136b4868287016132ff565b93505060206136c58682870161332d565b925050604084013567ffffffffffffffff8111156136e6576136e5614871565b5b6136f2868287016132ff565b9150509250925092565b60006020828403121561371257613711614876565b5b60006137208482850161332d565b91505092915050565b6000613735838361376d565b60208301905092915050565b600061374d8383613968565b905092915050565b60006137618383613d61565b60208301905092915050565b613776816145f7565b82525050565b613785816145f7565b82525050565b600061379682614489565b6137a081856144dc565b93506137ab8361442f565b8060005b838110156137dc5781516137c38882613729565b97506137ce836144b5565b9250506001810190506137af565b5085935050505092915050565b60006137f482614494565b6137fe81856144ed565b9350836020820285016138108561443f565b8060005b8581101561384c578484038952815161382d8582613741565b9450613838836144c2565b925060208a01995050600181019050613814565b50829750879550505050505092915050565b60006138698261449f565b61387381856144fe565b935061387e8361444f565b8060005b838110156138af5781516138968882613755565b97506138a1836144cf565b925050600181019050613882565b5085935050505092915050565b6138c581614609565b82525050565b6138d481614609565b82525050565b600081546138e7816146d0565b6138f1818661450f565b9450600182166000811461390c576001811461391d57613950565b60ff19831686528186019350613950565b6139268561445f565b60005b8381101561394857815481890152600182019150602081019050613929565b838801955050505b50505092915050565b61396281614652565b82525050565b6000613973826144aa565b61397d818561451a565b935061398d818560208601614673565b6139968161487b565b840191505092915050565b60006139ac826144aa565b6139b6818561452b565b93506139c6818560208601614673565b6139cf8161487b565b840191505092915050565b60006139e5826144aa565b6139ef818561453c565b93506139ff818560208601614673565b80840191505092915050565b60008154613a18816146d0565b613a22818661452b565b94506001821660008114613a3d5760018114613a4f57613a82565b60ff1983168652602086019350613a82565b613a5885614474565b60005b83811015613a7a57815481890152600182019150602081019050613a5b565b808801955050505b50505092915050565b6000613a98601c8361452b565b9150613aa38261488c565b602082019050919050565b6000613abb60158361452b565b9150613ac6826148b5565b602082019050919050565b6000613ade60128361452b565b9150613ae9826148de565b602082019050919050565b6000613b01602d8361452b565b9150613b0c82614907565b604082019050919050565b6000613b2460178361452b565b9150613b2f82614956565b602082019050919050565b6000613b4760198361452b565b9150613b528261497f565b602082019050919050565b6000613b6a600f8361452b565b9150613b75826149a8565b602082019050919050565b6000613b8d60238361452b565b9150613b98826149d1565b604082019050919050565b6000613bb060218361452b565b9150613bbb82614a20565b604082019050919050565b6000613bd3601b8361452b565b9150613bde82614a6f565b602082019050919050565b6000613bf660168361452b565b9150613c0182614a98565b602082019050919050565b600060c0830160008301518482036000860152613c298282613968565b9150506020830151613c3e6020860182613d61565b506040830151613c516040860182613d61565b5060608301518482036060860152613c698282613968565b9150506080830151613c7e608086018261376d565b5060a0830151613c9160a08601826138bc565b508091505092915050565b6000610100830160008301518482036000860152613cba8282613968565b9150506020830151613ccf6020860182613d61565b5060408301518482036040860152613ce78282613968565b91505060608301518482036060860152613d018282613968565b9150506080830151613d166080860182613d61565b5060a083015184820360a0860152613d2e8282613968565b91505060c0830151613d4360c086018261376d565b5060e0830151613d5660e0860182613d61565b508091505092915050565b613d6a81614648565b82525050565b613d7981614648565b82525050565b6000613d8b82846138da565b915081905092915050565b6000613da282846139da565b915081905092915050565b6000602082019050613dc2600083018461377c565b92915050565b60006020820190508181036000830152613de2818461378b565b905092915050565b60006020820190508181036000830152613e0481846137e9565b905092915050565b60006020820190508181036000830152613e26818461385e565b905092915050565b6000602082019050613e4360008301846138cb565b92915050565b6000604082019050613e5e6000830185613959565b613e6b6020830184613959565b9392505050565b60006040820190508181036000830152613e8c81856139a1565b9050613e9b602083018461377c565b9392505050565b60006040820190508181036000830152613ebc81856139a1565b90508181036020830152613ed081846139a1565b90509392505050565b60006080820190508181036000830152613ef381876139a1565b90508181036020830152613f0781866139a1565b9050613f1660408301856138cb565b613f236060830184613959565b95945050505050565b600060a0820190508181036000830152613f4681886139a1565b90508181036020830152613f5a81876139a1565b90508181036040830152613f6e81866139a1565b9050613f7d60608301856138cb565b613f8a6080830184613959565b9695505050505050565b600060e0820190508181036000830152613fae818a6139a1565b90508181036020830152613fc281896139a1565b90508181036040830152613fd681886139a1565b9050613fe56060830187613d70565b8181036080830152613ff781866139a1565b905061400660a0830185613d70565b61401360c08301846138cb565b98975050505050505050565b600061010082019050818103600083015261403a818b6139a1565b9050614049602083018a613d70565b818103604083015261405b81896139a1565b9050818103606083015261406f81886139a1565b905061407e6080830187613d70565b81810360a083015261409081866139a1565b905061409f60c083018561377c565b6140ac60e0830184613d70565b9998505050505050505050565b600060a08201905081810360008301526140d381886139a1565b90506140e26020830187613d70565b6140ef6040830186613d70565b818103606083015261410181856139a1565b9050614110608083018461377c565b9695505050505050565b600060c082019050818103600083015261413481896139a1565b90506141436020830188613d70565b6141506040830187613d70565b818103606083015261416281866139a1565b9050614171608083018561377c565b61417e60a08301846138cb565b979650505050505050565b600060408201905081810360008301526141a38185613a0b565b90506141b26020830184613959565b9392505050565b600060208201905081810360008301526141d281613a8b565b9050919050565b600060208201905081810360008301526141f281613aae565b9050919050565b6000602082019050818103600083015261421281613ad1565b9050919050565b6000602082019050818103600083015261423281613af4565b9050919050565b6000602082019050818103600083015261425281613b17565b9050919050565b6000602082019050818103600083015261427281613b3a565b9050919050565b6000602082019050818103600083015261429281613b5d565b9050919050565b600060208201905081810360008301526142b281613b80565b9050919050565b600060208201905081810360008301526142d281613ba3565b9050919050565b600060208201905081810360008301526142f281613bc6565b9050919050565b6000602082019050818103600083015261431281613be9565b9050919050565b600060208201905081810360008301526143338184613c0c565b905092915050565b600060208201905081810360008301526143558184613c9c565b905092915050565b60006020820190506143726000830184613d70565b92915050565b600060c08201905061438d6000830189613d70565b61439a6020830188613d70565b6143a76040830187613d70565b6143b46060830186613d70565b6143c16080830185613d70565b6143ce60a0830184613d70565b979650505050505050565b60006143e36143f4565b90506143ef8282614702565b919050565b6000604051905090565b600067ffffffffffffffff82111561441957614418614838565b5b6144228261487b565b9050602081019050919050565b6000819050602082019050919050565b6000819050602082019050919050565b6000819050602082019050919050565b60008190508160005260206000209050919050565b60008190508160005260206000209050919050565b600081519050919050565b600081519050919050565b600081519050919050565b600081519050919050565b6000602082019050919050565b6000602082019050919050565b6000602082019050919050565b600082825260208201905092915050565b600082825260208201905092915050565b600082825260208201905092915050565b600081905092915050565b600082825260208201905092915050565b600082825260208201905092915050565b600081905092915050565b600061455282614648565b915061455d83614648565b9250827fffffffffffffffffffffffffffffffffffffffffffffffffffffffffffffffff038211156145925761459161477c565b5b828201905092915050565b60006145a882614648565b91506145b383614648565b9250817fffffffffffffffffffffffffffffffffffffffffffffffffffffffffffffffff04831182151516156145ec576145eb61477c565b5b828202905092915050565b600061460282614628565b9050919050565b60008115159050919050565b600081905061462382614ac1565b919050565b600073ffffffffffffffffffffffffffffffffffffffff82169050919050565b6000819050919050565b600061465d82614615565b9050919050565b82818337600083830152505050565b60005b83811015614691578082015181840152602081019050614676565b838111156146a0576000848401525b50505050565b60006146b182614648565b915060008214156146c5576146c461477c565b5b600182039050919050565b600060028204905060018216806146e857607f821691505b602082108114156146fc576146fb6147da565b5b50919050565b61470b8261487b565b810181811067ffffffffffffffff8211171561472a57614729614838565b5b80604052505050565b600061473e82614648565b91507fffffffffffffffffffffffffffffffffffffffffffffffffffffffffffffffff8214156147715761477061477c565b5b600182019050919050565b7f4e487b7100000000000000000000000000000000000000000000000000000000600052601160045260246000fd5b7f4e487b7100000000000000000000000000000000000000000000000000000000600052602160045260246000fd5b7f4e487b7100000000000000000000000000000000000000000000000000000000600052602260045260246000fd5b7f4e487b7100000000000000000000000000000000000000000000000000000000600052603260045260246000fd5b7f4e487b7100000000000000000000000000000000000000000000000000000000600052604160045260246000fd5b600080fd5b600080fd5b600080fd5b600080fd5b6000601f19601f8301169050919050565b7f4368616c6c616e2070726963652063616e6e6f74206265207a65726f00000000600082015250565b7f496e76616c6964206368616c6c616e20696e6465780000000000000000000000600082015250565b7f496e76616c696420746f6c6c20696e6465780000000000000000000000000000600082015250565b7f4f6e6c792061646d696e206f7220656d706c6f7965652063616e2063616c6c2060008201527f746869732066756e6374696f6e00000000000000000000000000000000000000602082015250565b7f5573657220697320616c726561647920626c6f636b6564000000000000000000600082015250565b7f5573657220697320616c7265616479207369676e656420757000000000000000600082015250565b7f5573657220697320626c6f636b65640000000000000000000000000000000000600082015250565b7f496e76616c69642076656869636c6520726567697374726174696f6e206e756d60008201527f6265720000000000000000000000000000000000000000000000000000000000602082015250565b7f4f6e6c792061646d696e2063616e2063616c6c20746869732066756e6374696f60008201527f6e00000000000000000000000000000000000000000000000000000000000000602082015250565b7f55736572206973206e6f742072656769737465726564207965742e0000000000600082015250565b7f5573657220697320616c72656164792061637469766500000000000000000000600082015250565b60038110614ad257614ad16147ab565b5b50565b614ade816145f7565b8114614ae957600080fd5b50565b60038110614af957600080fd5b50565b614b0581614648565b8114614b1057600080fd5b5056fea2646970667358221220a999b83449097de7704e0634ebd14c365b480a83dd4ef640f24133efb25381b564736f6c63430008060033",
  "immutableReferences": {},
  "source": "// SPDX-License-Identifier: MIT\r\npragma solidity ^0.8.6;\r\n\r\ncontract UserManager {\r\n    struct User {\r\n        string name;\r\n        string email;\r\n        string password;\r\n        bool isActive;\r\n        UserRole role;\r\n        uint256[] challanIds; // Array to efficiently track associated challan IDs\r\n        uint256[] tollIds; \r\n        string[] vehicleIds ;\r\n    }\r\n    \r\n    struct Toll {\r\n        string vehicleNo;\r\n        uint256 Time;\r\n        string startingPoint;\r\n        string endingPoint;\r\n        uint256 totalDistance;\r\n        string highwayNo;\r\n        address issuedby;\r\n        uint payamount ;\r\n    }\r\n\r\n    struct Vehicle { \r\n        string vehicleType;\r\n        address ownerAddress;\r\n    }\r\n\r\n    struct Challan {\r\n        string vehicleNo;\r\n        uint time ; \r\n        uint256 challanPrice;\r\n        string reason;\r\n        address issuedby;\r\n        bool isPaid ;\r\n    }\r\n   \r\n    address[] public userAddresses;\r\n    Toll[] public tolldetails ;\r\n    Challan[] public challandetails ;\r\n   \r\n    enum UserRole { Admin, Employee, Customer }\r\n    \r\n    mapping(address => User) public users;\r\n    mapping(string  => Vehicle) public vehicledetails ;\r\n    mapping(string => uint256) public categoryToRate;\r\n    \r\n    uint public admincount ;\r\n    uint public employeecount ;\r\n    uint public customercount ;\r\n    uint public activecount ;\r\n    uint public blockedcount ;\r\n    \r\n\r\n    modifier onlyAdminOrEmployee() {\r\n        require(users[msg.sender].role == UserRole.Admin || users[msg.sender].role == UserRole.Employee , \"Only admin or employee can call this function\");\r\n        _;\r\n    }\r\n    \r\n    modifier onlyUser() {\r\n        require(users[msg.sender].isActive, \"User is Blocked\");\r\n        _;\r\n    }\r\n    \r\n    modifier onlyAdmin() {\r\n        require(users[msg.sender].role == UserRole.Admin, \"Only admin can call this function\");\r\n        _;\r\n    }\r\n\r\n\r\n    event UserSignUp(address indexed userAddress, string name, string email ,string password,bool isActive, UserRole role);\r\n    event UserLogin( address indexed userAddress,string name, UserRole role);\r\n    event UserRoleChanged(address indexed userAddress, UserRole oldRole, UserRole newRole);\r\n    event UserBlocked(address indexed userAddress);\r\n    event UserUnblocked(address indexed userAddress);\r\n    event UserDetailsViewed(string viewerName, string userName, string userEmail, bool isActive, UserRole role);\r\n    event AllUserCounts(uint256 adminCount, uint256 employeeCount, uint256 customerCount, uint256 activeUserCount, uint256 blockedUserCount);\r\n    event VehicleAdded(address indexed userAddress, string registrationNumber, string make, string model, string color);\r\n    event ChallanAdded(address indexed userAddress, string description, uint256 amount);\r\n    event BalanceAdded(address indexed userAddress, uint balance) ;\r\n    event TollAdded(string vehicleNo, string startingPoint, string endingPoint, uint256 totalDistance, string highwayNo, address indexed issuedby,uint tollamount, bool ispaid);\r\n    event PaymentAdded(uint256 amount, uint256 timestamp);\r\n    event ChallanAdded(string vehicleNo, uint256 timestamp, uint256 challanPrice, string reason, address issuedby);\r\n    event VehicleAdded(string reg_no ,address indexed userAddress,string vehicletype);\r\n\r\n    constructor() {\r\n\r\n        categoryToRate[\"Motorcycles and Scooters\"] = 1;\r\n        categoryToRate[\"Passenger Vehicles\"] = 2;\r\n        categoryToRate[\"Light Trucks and Pickups\"] = 3;\r\n        categoryToRate[\"Buses\"] = 4;\r\n        categoryToRate[\"Commercial Trucks\"] = 5;\r\n        categoryToRate[\"RVs and Motorhomes\"] = 4;\r\n        categoryToRate[\"Trailers and Caravans\"] = 3;\r\n        categoryToRate[\"Construction and heavy Vehicles\"] = 6 ;\r\n        categoryToRate[\"Emergency Vehicles\"] = 0;\r\n        categoryToRate[\"Specialty Vehicles\"] = 5;\r\n\r\n        address userAddress = msg.sender ;\r\n        users[userAddress].name = \"shailesh\";\r\n        users[userAddress].email =\"shai@gmail.com\";\r\n        users[userAddress].password = \"1234\";\r\n        users[userAddress].isActive = true;\r\n        users[userAddress].role = UserRole.Admin;\r\n         admincount++ ;\r\n         activecount++;\r\n         userAddresses.push(userAddress);\r\n        emit UserSignUp(userAddress,\"shailesh\",\"shai@gmail.com\" ,\"1234\",true, UserRole.Admin);\r\n    }\r\n\r\n    function signUp(string memory _name, string memory _email, string memory _password) external {\r\n        require(!(bytes(users[msg.sender].name).length > 0), \"User is already signed up\");\r\n        users[msg.sender].name = _name;\r\n        users[msg.sender].email = _email;\r\n        users[msg.sender].password = _password;\r\n        users[msg.sender].isActive = true;\r\n        users[msg.sender].role = UserRole.Customer;\r\n        customercount++ ;\r\n         activecount++;\r\n         userAddresses.push(msg.sender);\r\n        emit UserSignUp(msg.sender, _name, _email,_password,true, UserRole.Customer);\r\n    }\r\n     \r\n    function login( string memory _password, UserRole _role) external returns (bool) {\r\n        require(bytes(users[msg.sender].name).length > 0 , \"User is not registered yet.\");\r\n        require(users[msg.sender].isActive, \"User is blocked\"); \r\n        if (keccak256(bytes(users[msg.sender].password)) != keccak256(bytes(_password))) {\r\n            return false; // Invalid password\r\n        }\r\n        if (users[msg.sender].role != _role) {\r\n            return false; // Invalid role\r\n        }\r\n        emit UserLogin(msg.sender,users[msg.sender].name, _role);\r\n        return true; // All checks passed, login successful\r\n    }\r\n\r\n    function changeUserRole(address _userAddress, UserRole _newRole) external onlyAdminOrEmployee {\r\n        UserRole oldRole = users[_userAddress].role;\r\n        users[_userAddress].role = _newRole;\r\n        if (oldRole == UserRole.Admin) {\r\n            admincount--;\r\n        } else if (oldRole == UserRole.Employee) {\r\n            employeecount-- ;\r\n        } else if (oldRole == UserRole.Customer) {\r\n            customercount-- ;\r\n        }\r\n        if (_newRole == UserRole.Admin) {\r\n            admincount++ ;\r\n        } else if (_newRole == UserRole.Employee) {\r\n            employeecount++;\r\n        } else if (_newRole == UserRole.Customer) {\r\n            customercount++ ;\r\n        }\r\n        emit UserRoleChanged(_userAddress, oldRole, _newRole);\r\n    }\r\n    \r\n    function blockUser(address _userAddress) external onlyAdminOrEmployee {\r\n        require(users[_userAddress].isActive, \"User is already blocked\");\r\n        users[_userAddress].isActive = false;\r\n        activecount--;\r\n        blockedcount++ ;\r\n        emit UserBlocked(_userAddress);\r\n    }\r\n\r\n    function unblockUser(address _userAddress) external onlyAdminOrEmployee {\r\n        require(!users[_userAddress].isActive, \"User is already active\");\r\n        users[_userAddress].isActive = true;\r\n        activecount++ ;\r\n        blockedcount--;  \r\n        emit UserUnblocked(_userAddress);\r\n    }\r\n    \r\n    function usercount() external onlyAdmin view returns (uint ,uint ,uint , uint ,uint,uint ){\r\n       return  (activecount+blockedcount,admincount,employeecount,customercount,activecount, blockedcount );\r\n    }         \r\n    \r\n    function addvehicle(address _owner, string memory reg_no,  string memory vehicletype ) external onlyAdmin {\r\n        vehicledetails[reg_no].ownerAddress  = _owner;\r\n        vehicledetails[reg_no].vehicleType = vehicletype ;\r\n\r\n        users[_owner].vehicleIds.push(reg_no);\r\n        emit VehicleAdded(reg_no, _owner, vehicletype );\r\n    }\r\n    \r\n    function addToll(string memory reg_no,string memory startingPoint, string memory endingPoint, uint256 totalDistance,string memory highwayNo) external onlyAdminOrEmployee {\r\n        address owner= vehicledetails[reg_no].ownerAddress;\r\n        require(owner != address(0), \"Invalid vehicle registration number\"); // Check if vehicle exists\r\n        uint256 tollAmount = 2 * totalDistance;\r\n        address issuedby = msg.sender ;\r\n        // Create a new Toll object\r\n        Toll memory newToll = Toll(reg_no, block.timestamp, startingPoint, endingPoint, totalDistance, highwayNo, issuedby, tollAmount);\r\n\r\n        uint256 tollIndex = tolldetails.length;// Add the toll to the tolls array\r\n        tolldetails.push(newToll);\r\n        \r\n        users[owner].tollIds.push(tollIndex);\r\n\r\n        emit TollAdded(reg_no, startingPoint, endingPoint, totalDistance, highwayNo, issuedby, tollAmount,false);  \r\n    }\r\n    \r\n     \r\n    function addChallan(string memory reg_no, uint256 challanPrice, string memory reason ) public {\r\n        require(challanPrice > 0, \"Challan price cannot be zero\"); // Validate challan price\r\n        \r\n        address owner = vehicledetails[reg_no].ownerAddress;\r\n        require(owner != address(0), \"Invalid vehicle registration number\");\r\n        \r\n        uint index = challandetails.length ;\r\n        bool ispaid = true ;\r\n        address issuedby = msg.sender ;\r\n        // Create a new Challan object\r\n        Challan memory newChallan = Challan(reg_no,  block.timestamp, challanPrice, reason, issuedby ,ispaid);\r\n        challandetails.push(newChallan);\r\n        users[owner].challanIds.push(index);\r\n        // Add the challan to the challans array\r\n      \r\n        emit ChallanAdded(reg_no, block.timestamp, challanPrice, reason, issuedby);\r\n    }\r\n\r\n    function getAllUserAddresses() public view returns (address[] memory) {\r\n        return userAddresses;\r\n    }\r\n    \r\n     function getChallanIds(address userAddress) public view returns (uint256[] memory) {\r\n        return users[userAddress].challanIds;\r\n    }\r\n\r\n    function getTollIds(address userAddress) public view returns (uint256[] memory) {\r\n        return users[userAddress].tollIds;\r\n    }\r\n\r\n     function getvehicleIds(address userAddress) public view returns (string[] memory) {\r\n        return users[userAddress].vehicleIds;\r\n    }\r\n \r\n     \r\n    \r\n     function getTollByIndex(uint256 index) public view returns (Toll memory) {\r\n        require(index >= 0 && index < tolldetails.length, \"Invalid toll index\");\r\n        return tolldetails[index];\r\n    }\r\n\r\n    function getChallanByIndex(uint256 index) public view returns (Challan memory) {\r\n        require(index >= 0 && index < challandetails.length, \"Invalid challan index\");\r\n        return challandetails[index];\r\n    }\r\n \r\n     function viewUserDetails(address _userAddress) public view returns (string memory, string memory, bool, UserRole ) {\r\n        return (users[_userAddress].name, users[_userAddress].email, users[_userAddress].isActive, users[_userAddress].role);\r\n    }\r\n     \r\n}\r\n\r\n",
  "sourcePath": "F:\\Toll_mangement_system\\project\\src\\contracts\\UserManager.sol",
  "compiler": {
    "name": "solc",
    "version": "0.8.6+commit.11564f7e.Emscripten.clang"
  },
  "schemaVersion": "3.4.4",
  "updatedAt": "2024-05-31T07:50:44.899Z",
  "networkType": "ethereum",
  "devdoc": {
    "kind": "dev",
    "methods": {},
    "version": 1
  },
  "userdoc": {
    "kind": "user",
    "methods": {},
    "version": 1
  }
}